:020000040800F2
:10000000380800203D0200085F3300081D28000862
:100010005B330008391F0008FD41000800000000A4
:100020000000000000000000000000002D3C00085F
:100030006521000800000000153B0008413D000854
:10004000570200085702000857020008570200082C
:100050005702000857020008192500084925000822
:10006000570200085702000857020008570200080C
:1000700057020008570200085702000857020008FC
:1000800057020008570200085702000857020008EC
:1000900057020008570200085702000857020008DC
:1000A00057020008570200085702000857020008CC
:1000B000A53D0008193E0008570200085702000835
:1000C00057020008570200085702000857020008AC
:1000D00057020008D13F0008ED3F00085702000812
:1000E00057020008570200085702000800F002F803
:1000F00000F094F80AA090E8000C82448344AAF12E
:100100000107DA4501D100F089F8AFF2090EBAE82B
:100110000F0013F0010F18BFFB1A43F0010318473B
:10012000EC6F00000C700000103A24BF78C878C152
:10013000FAD8520724BF30C830C144BF04680C60ED
:10014000704700000023002400250026103A28BF35
:1001500078C1FBD8520728BF30C148BF0B60704739
:100160006E2900F0F584702900F0E781662906F019
:100170003F86652906F03C86672906F039866129A5
:10018000AFF3008003681B0A28BF41F08001692992
:1001900000F05881642900F05581752900F05281E2
:1001A0006F2900F0F187782900F0B381E92900F088
:1001B0008B87E42900F08887F52900F08587EF29EF
:1001C00000F0EE87F82900F0B2810368DB0928BF50
:1001D00041F08001632900F00C87732900F011873A
:1001E000E32901F0D180F32901F0D6800020704787
:1001F0001FB59DE8030000F0FFFB01F017F80400B5
:100200000020002105F014FE401C60600020002149
:1002100005F024FEE0601FBD10B510BD01F0A6F989
:100220001146FFF7E5FF04F05BFB01F0D2F903B4E0
:10023000FFF7F2FF03BC01F03FFA000009488047D6
:1002400009480047FEE7FEE7FEE7FEE7FEE7FEE7B8
:10025000FEE7FEE7FEE7FEE704480549054A064BD0
:1002600070470000453D0008ED00000838020020FE
:1002700038080020380400203804002070B50646F5
:1002800000F09AFB056806F10B0020F00704B44269
:100290009CBF002070BD2B466A68BAB11068A042AE
:1002A00010D304F1080188423CBF5068586007D35E
:1002B0005168101941601168091B01605860146091
:1002C000101D70BD13465268002AE7D1214628460A
:1002D00000F07EFB0028DED170BD70B50446051F1E
:1002E00000F06AFB0068002C14BF446870BD002C4D
:1002F00018BFAC423CBF20466468F8D301680A18B6
:10030000AA4218BF456003D12A680546114401601E
:1003100028684119A1421CBF6C6070BD61686960AA
:1003200021680844286070BD10B5044600F03CFB0D
:100330000068005DC00602D504F1200010BD204613
:1003400010BD00007CB51D4616460C00009001D083
:100350002044401E074B7B442A46694601903046A4
:1003600000F01DFE05461CB10020694600F02AFE83
:1003700028467CBD750C00000FB41CB5084B06AABE
:100380007B4469460090059800F009FE0446002071
:10039000694600F017FE20461CBC5DF814FB000007
:1003A000410C000070B5044685690068C10601D59E
:1003B000302600E02026C00707D070BDD4E9012117
:1003C00030469047206A401C20626D1EF6D570BDF5
:1003D00070B5044685690078C00707D170BDD4E9BF
:1003E000012120209047206A401C20626D1EF6D516
:1003F00070BD70B50C460546012A05D028788006E8
:1004000000D5EA69002302E0012305E05B1C93426A
:1004100002D2E05C0028F9D1A869E618C01AA861E8
:10042000286A184428622846FFF7BCFF04E0D5E993
:10043000012114F8010B9047B442F8D32846FFF786
:10044000C7FF70BD2DE9F0410646002410687529EC
:10045000314616A510D000F010FB002802DA404209
:1004600013A507E031688A0701D512A502E0490704
:1004700004D511A5012401E000F008FB00210A22A7
:1004800006F1240709E0B0FBF2FCB0FBF2F302FB3B
:100490001C00303078541846491C0028F3D12346FC
:1004A0002A463046BDE8F04100F0F9BA00000000ED
:1004B0002D0000002B00000020000000F0B40D46CD
:1004C0000188090502D5214C7C4402E01F4C7C4484
:1004D0000E34002100F1240608E002F00F07120993
:1004E000E75D42EA03721B097754491C52EA03078D
:1004F000F3D102780023120704D5702D06D009B17C
:10050000022311342246F0BC00F0C9BA0123103492
:10051000F8E770B504460D462146106800F0B6FABB
:10052000024629462046BDE870400023C6E7D21D9A
:1005300022F00703D3E90023C0E70368126843F001
:10054000200303600823C3610023B7E7246A000087
:100550002DE9F05F894604464FF0000ADFF874B1D8
:10056000FB44C0F820A02046E1688847002874D0EA
:10057000252806D0D4E901219047206A401C20623A
:10058000F1E700265F462046E168884720280546B7
:1005900007DB312D05D2781910F8200C08B106437D
:1005A000F1E7B00701D526F00406C4F81CA0002727
:1005B000C4F818A02A2D09D0284603F095FF38B3B7
:1005C00004EB8708303DC8F8185019E059F8041BAF
:1005D000204604EB87029161E1688847012F0546B8
:1005E00018D1E069002820DA26F020061DE0D8F8AE
:1005F000180000EB800005EB40003038C8F8180008
:100600002046E1688847054603F06EFF0028EED1DA
:10061000012F0AD02E2D08D12046E16888477F1C83
:100620000546022F46F02006C4DBA069002803DA45
:10063000404246F00106A061F00701D026F0100606
:100640006C2D0BD0682D09D04C2D39D06A2D35D0AA
:10065000742D35D07A2D33D016E038E0E1682F467E
:1006600020468847B842054609D16C2F26D04FF462
:100670008060E168064320468847054604E06C2F09
:100680001AD04FF4807006430DB3A5F1410019282C
:1006900002D8203546F400664A46294620462660A0
:1006A0004E46FFF75DFD80B101280BD0F61D26F008
:1006B000070000F1080956E74020E4E78020D8E76A
:1006C0000020D6E706F104094DE7284652E7206AE4
:1006D000BDE8F09FB469000070B5064600F070F9FF
:1006E0000468054630460A22002100F063FD2C60B4
:1006F00070BD401ECAB210F8011F8A4202D0002904
:10070000F9D10020704710B5431E13F8014F002C9B
:10071000FBD105E011F8014B002C03F8014B03D08D
:10072000521EF7D20021197010BD30B505460B4698
:100730002A4613F8014B12F8010B08B1A042F8D079
:100740001CB1002802D06D1CF1E7284630BD10B561
:10075000431C02E010F8011B71B18107FAD14FF080
:10076000013202C88C1A8C4314EAC211F9D0C01AA3
:100770000A0603D0C01E10BDC01A10BD0A0401D065
:10078000801E10BD0902FCD0401E10BD40EA0103CE
:1007900070B59B072ED14FF00136042A2AD308C822
:1007A00010C99D1B9D43121F15EAC61517D0D8B25C
:1007B000E1B2401A50EA056110D198B2A1B2401AD4
:1007C00050EA05410AD123F07F4024F07F41401ACE
:1007D00050EA052102D1180EA0EB146070BDA342AF
:1007E000DBD018BA21BA884201D9012070BD4FF080
:1007F000FF3070BD0AB9002070BD10F8013B11F840
:10080000014B63B1A3420AD1521E08D010F8013B3C
:1008100011F8014B1BB1A34201D1521EEDD1181B9F
:1008200070BD032A40F2308010F0030C00F01580F8
:1008300011F8013BBCF1020F624498BF11F801CBE3
:1008400000F8013B38BF11F8013BA2F1040298BF48
:1008500000F801CB38BF00F8013B11F0030300F0B2
:100860002580083AC0F0088051F8043B083A51F856
:1008700004CBA0E80810F5E7121D5CBF51F8043B5B
:1008800040F8043BAFF30080D20724BF11F8013BCE
:1008900011F801CB48BF11F8012B24BF00F8013B30
:1008A00000F801CB48BF00F8012B704710B5203A83
:1008B000C0F00B80B1E81850203AA0E81850B1E819
:1008C0001850A0E81850BFF4F5AF5FEA027C24BFCF
:1008D000B1E81850A0E8185044BF18C918C0BDE8C6
:1008E00010405FEA827C24BF51F8043B40F8043B8F
:1008F00008BF7047D20728BF31F8023B48BF11F844
:10090000012B28BF20F8023B48BF00F8012B70479D
:100910004FF000020429C0F0128010F0030C00F028
:100920001B80CCF1040CBCF1020F18BF00F8012BA6
:10093000A8BF20F8022BA1EB0C0100F00DB85FEA74
:10094000C17C24BF00F8012B00F8012B48BF00F840
:10095000012B70474FF0000200B5134694469646AF
:10096000203922BFA0E80C50A0E80C50B1F12001C2
:10097000BFF4F7AF090728BFA0E80C5048BF0CC070
:100980005DF804EB890028BF40F8042B08BF7047CE
:1009900048BF20F8022B11F0804F18BF00F8012B40
:1009A000704770477047704710B500F03FFC001D5E
:1009B00010BD00BF7D54000000487047E0010020DA
:1009C00000487047D8010020704770477047704753
:1009D00038B504460A4600206946AFF30080002877
:1009E00008BF38BD02460099204600F023FC0120D4
:1009F00038BD012000F0B2BDF8B5AFF30080054668
:100A000000200C46102000BF0646A819A0420DD9B0
:100A1000324669460020AFF30080070008BF00F0AF
:100A20009DFD0098A04218BF0546C419FFF7C4FFFA
:100A300005600746F01D20F007004619284600F023
:100A40000AF8B44208BFF8BDA21B31463868BDE8B9
:100A5000F84000F0EFBB00210160C0E901107047D1
:100A60001020704710B5FFF7ABFF006810BD10B540
:100A70000446FFF7A5FF046010BD09684A0501D5CB
:100A800040B27047C905FCD500B2704709684A05F5
:100A900001D5C0B27047C905FCD580B270472DE9B9
:100AA000F0470D4699469246044600F12408016835
:100AB000880604D5E06921F01001216000E00120E2
:100AC000A84201DD471B00E00027A1697A1902EB6B
:100AD0000900081AA0612078C00602D42046FFF75A
:100AE00061FC002608E0D4E901211AF806009047CD
:100AF000206A401C761C20624E45F4DB2078C0063C
:100B00000AD52046FFF74EFC06E0D4E9012130204B
:100B10009047206A401C2062381EA7F10107F4DCD0
:100B200007E0D4E9012118F805009047206A401C2D
:100B30002062281EA5F10105F3DC2046FFF748FCE2
:100B40002078000602D50220BDE8F0870120FBE7EF
:100B500011680268006A530501D508700AE0D305E0
:100B600001D5088006E0130603D5C217C1E90002CB
:100B700000E008600120704770472DE9FF4F0C46E8
:100B80001E464FF0FF378BB0D2E90001DDF86080E0
:100B90000A908A46C1F30A5505B93D460021084628
:100BA0004FF00000BAF1000F00F4400005DA00EB4E
:100BB00080004FF4400101EA50004FEA9059B9F12A
:100BC000010F00DDB9460A9850EA4A000ED044F6FB
:100BD0001050A5F2FF3545432F14B8F1000F1ED079
:100BE0007542291E1EDDC9F100021CE0B8F1010F9B
:100BF0004FF0000001D0302103E0F24305E0215422
:100C0000401CB042FBDB30460022002121540B99EE
:100C1000C1F80880C1E900200FB0BDE8F08FBD1B0E
:100C20006D1CDEE74A4600DA694206A800F008FCBF
:100C300006AB93E8070003AB83E8070050460A9928
:100C400000F060FD8DE80700A0F500501F3800900F
:100C50000398002D09DD42F21F014A46084403A90A
:100C60000390684600F0BFFF08E0A0F500504A4638
:100C70001F3803A90390684600F0C9FF8DE80700FC
:100C80000004000C03D04FF0FF30410800E0104694
:100C9000B8F1000F03D00022009215461EE0751E29
:100CA00005D400F0E1FA303262556D1EF9D5B34635
:100CB0000122084302D000227F1C04E02078302863
:100CC00001D100227F1E002A099786D01DE0112D38
:100CD00007DA00F0C9FA303262556D1C50EA0102A1
:100CE000F5D1084302D00098C8B10EE00021681E7B
:100CF00005E0235C625C63542254401E491C81421F
:100D0000F7DBAB46A81B401E0990002004F80B003F
:100D10000B98099AC0F80880C0E9002B7CE71126DF
:100D20004FF0000859E72DE9F04F88460446D21DE0
:100D300022F0070191B0D1E90001CDE90A0103F0E9
:100D40004AFB02460B98C00F01D02D2007E0206817
:100D5000810701D52B2002E0202101EAC000032AEF
:100D6000099001D0072A05DB03464146204600F0E2
:100D7000C1FA0BE12078800601D5E06900E0062089
:100D8000B8F1650F814606D0B8F1660F18D0B8F1FA
:100D9000670F70D131E00020B9F1110F009001DB35
:100DA000112301E009F101030AAA01A90CA8FFF728
:100DB000E4FEDDE90C70002609F10105834647E0F9
:100DC00001204B4600904FF000470AAA01A90CA849
:100DD000FFF7D3FEDDE90DB00C995D46002610B992
:100DE00009F101000D18B9EB050003D4C0F1FF367D
:100DF00009F10105A5EB09002BE0B9F1010F01DABA
:100E00004FF001090020B9F1110F0090484601DDB3
:100E1000112300E003460AAA01A90CA8FFF7ADFEC2
:100E2000DDE90C704D4600268346207800070AD481
:100E3000AB4500DA5D4601A8012D04DD411911F82A
:100E4000011C302907D04F4502DA17F1040F04DAEC
:100E5000012082460FE06D1EEEE7002F02DCED1B45
:100E60003E4403E0781CA84200DD7D1CB81B00F165
:100E7000010A4FF000472078000703D4AA4501DBA0
:100E80004FF0FF3A0021B7F1004F0DF143088DF804
:100E9000431024D002202B23002F01DA7F422D2380
:100EA0000A21021EA0F1010000DC5FB197FBF1FCFA
:100EB00097FBF1F201FB1C7C17460CF1300C08F893
:100EC00001CDEEE7A8F1010003702188090501D5E5
:100ED000452100E06521A0F1010800F8011C0998F6
:100EE0000FA9A1EB0807FF1D00B10120411901EB7B
:100EF000EA70A1693844081A401EA0612078C00633
:100F000002D42046FFF74EFA099828B1D4E901210E
:100F10009047206A401C20622078C00622D52046D7
:100F2000FFF740FA1EE0002E04DBB34502DD01A806
:100F3000805D00E03020D4E901219047206A401C08
:100F40002062761CAAF101005FEA000A0AD100F0D3
:100F50006DF9C0680168405CD4E901219047206ABE
:100F6000401C2062281EA5F10105DCDC07E0D4E965
:100F7000012118F8010B9047206A401C2062381E9E
:100F8000A7F10107F3DC2046FFF722FA032011B096
:100F900043E6000001694A1C02610878704700B509
:100FA0008FB0CDE901310021059105497944CDE9A2
:100FB000031011466846FFF7CBFA0FB000BD0000E2
:100FC000E5FFFFFF0A6802F8010B0A607047D1E9EC
:100FD00000239A4202D2531C0B601070704710B568
:100FE000436913B1AFF3008001E0FFF702FA01207B
:100FF00010BD127800F124010A7000224A7001220B
:10100000EDE711684FF0FF32E9E700002DE9FF5FDF
:1010100015468A460446DFF8AC80F8440027D8E934
:1010200000103E46CDE9001010E03AF816106A466E
:1010300002A800F073FA411C07D02178890603D575
:10104000E269391891420DD80744761C2078800651
:1010500002D5E069B84205DDAE42E6DB3AF816009B
:101060000028E2D1A069C01BA0612046FFF79AF9D1
:10107000D8E90010CDE90010002017E03AF8181068
:101080006A4602A800F04AFAB0F1FF3F81460BD051
:1010900000250DF1080B05E0D4E901211BF805003E
:1010A00090476D1C4D45F7D308F10100B0428046D2
:1010B000E4DB206A384420622046FFF789F9BDE866
:1010C000FF9F00009A5F00002DE9F0418046D21D8D
:1010D00022F007020025D2E90002F52915A614D056
:1010E000011E72F1000106DA0023D0EB030063EB6E
:1010F000020211A608E0D8F800108B0701D50FA650
:1011000002E0490701D50EA601251146002408F189
:10111000240704E000F0A8F830323A55641C50EA85
:101120000102F7D12B46324621464046BDE8F04148
:10113000FFF7B5BC000000002D0000002B000000F0
:101140002000000030B4002100F1240408E002F087
:101150000705D208303542EA4372DB086554491C62
:1011600052EA0305F3D10468002310A2250708D52D
:1011700004F020040C4304D0C46901230CA2641EB3
:10118000C46130BCFFF78BBC10B504462146106823
:10119000FFF77CFC02462046BDE810400023D1E763
:1011A000D21D22F00701D1E90023CBE700000000A7
:1011B000300000002DE9F04791460F468046044676
:1011C000002614F8015B2DB1FFF7EEFB0068405DCF
:1011D000C007F6D12B2D02D02D2D18D0641E4A4603
:1011E0003946204600F0DCF827B13968A14201D128
:1011F000C7F800804FF0020471050BD5404200286B
:1012000003DDFFF7DDFB0460A007BDE8F08746F4CF
:101210008066E4E70028F8DAFFF7D2FB04606FF09D
:101220000040F2E700487047D801002000487047AE
:10123000F8010020034640688C46002818BF884209
:101240003CBF03464068F8D318681844884207D06A
:101250000CF1030020F00700001D411A521A01464C
:10126000081D0A60FFF739B830B5B0F10A024FEA3D
:10127000900E71F100034EEA817EB0EB0E0061EB3F
:1012800091014FEA101E4EEA017E10EB0E0041EB79
:1012900011114FEA102E4EEA016E10EB0E0041EBD9
:1012A00011214FEA104E4EEA014E10EB0E0041EBB9
:1012B0001141401841F100014FEAD00040EA41706D
:1012C0004FEAD10110EB80054FEA810444EA9074A3
:1012D00044EB01046D1944EB0404521BA3414FF08D
:1012E000000348BF0A3200D530BD401C41F1000167
:1012F00030BD00002DE9F0411F4604460326016879
:10130000072A01F4006004DB08B116A505E016A564
:1013100003E008B115A500E015A521F0100020603C
:10132000A069C01EA0610FB1401EA0612046FFF75A
:1013300039F84FB1D4E9012138469047206A401C62
:101340002062C01C206206E0206AFAE7D4E901218D
:1013500015F8010B9047761EF8D22046FFF738F8B3
:10136000BDE8F0814E414E006E616E00494E460070
:10137000696E660010B5436913B1AFF3008001E0F8
:10138000FFF744FE012010BD128800F12401828481
:101390000022C2840122EDE711684FF0FF32E9E735
:1013A0002DE9F05F824615468B4600270AF10104BD
:1013B000B9460078302801D09DB113E014F8010B34
:1013C0000127782803D0582801D045B10AE00DB193
:1013D000102D07D1002714F8010B102502E0082575
:1013E00000E00A250026B0460EE005FB080005FBDC
:1013F00006F101271FFA80F801EB1046B6F5803F91
:1014000000D3B94614F8010B294600F0D4F800289F
:10141000EBDABBF1000F05D00FB1641E00E05446BB
:10142000CBF80040B9F1000F06D0FFF7C9FA02214E
:101430000160C81EBDE8F09F48EA0640FAE70000D8
:101440002DE9F047814616468AB0334878440DC8E6
:101450008DE80D0030487844801C03AC0DC884E84A
:101460000D0041F69B300844372190FBF1F290FBD0
:10147000F1F5A5F1800501FB12041B3C02D5644285
:10148000012000E00020DFF890A080460027FA4409
:10149000AAF1BE0A0DE0E00709D03246684607EB24
:1014A00047010AEB810100F0B2FB8DE807006410F0
:1014B0007F1C002CEFD1184F7F44AC3F18E0E807A9
:1014C00014D007EB04100DF1180A90E80E008AE81A
:1014D0000E00C068F04201D198190890324606A962
:1014E00003A800F094FB03AB83E807006D10641CB5
:1014F000002DE4D132466946B8F1000F03A802D0AE
:1015000000F071FB01E000F082FBC9E90001C9F8BD
:1015100008200AB0BDE8F087F45B000070B51646FD
:101520000C460546FFF740FA036893F801010128CD
:1015300006D0FF2C0FD8185D68B101202C7070BD4B
:10154000D3F807013246214603F207130344284625
:10155000BDE8704018474FF0FF3070BD10B500F087
:1015600043F8BDE8104000F03AB870477546FFF701
:1015700059FEAE4605006946534620F007008546F1
:1015800018B020B5FEF768FEBDE820404FF0000619
:101590004FF000074FF000084FF0000B21F007015B
:1015A000AC46ACE8C009ACE8C009ACE8C009ACE89E
:1015B000C0098D4670473A2800D2303820F020020A
:1015C000412A01D3A2F13700884201D34FF0FF3006
:1015D00070470446AFF300802046FEF728FE00283F
:1015E00001D000F069B8704710B5012805D000217E
:1015F00003A000F067F8012010BD09A1F8E7000082
:1016000053494752544D454D3A204F7574206F66EB
:101610002068656170206D656D6F72790000000053
:101620003A2048656170206D656D6F727920636F37
:1016300072727570746564004FF0013C50F8042BB1
:1016400051F8043B9A4221D1A2EB0C03934313EAD5
:10165000CC1317D150F8042B51F8043B9A4215D102
:10166000A2EB0C03934313EACC130BD150F8042BD9
:1016700051F8043B9A4209D1A2EB0C03934313EABD
:10168000CC13DBD04FF00000704700BFD01A01BA76
:10169000B1FA81F101F0180122FA01F0CB40C1F159
:1016A0002001DBB2C0B2C01A2CFA01F3D11A914367
:1016B00011EAC311E6D1704701491820ABBEFEE71D
:1016C0002600020070B505460C460A2000E06D1C9D
:1016D00000F011F835B128780028F8D102E0641C38
:1016E00000F009F814B120780028F8D1BDE8704066
:1016F0000A20AFF3008008B569468DF8000003208A
:10170000ABBE08BD5FEA400C08BF91F0000F4FEA86
:101710008C234FEAC12243EA51514FEA1C5018BFB3
:1017200000F5F0404FEA300018BF41F000415FEA99
:101730006C5C00F02980BCF1FF3F08BF40F08040A6
:101740007047130C06BF12044FF0100C4FF0000C42
:10175000130E04BF12020CF1080C130F04BF120188
:101760000CF1040C930F04BF92000CF1020CD30F88
:1017700004BF52000CF1010C11464FF00002A0F121
:101780001F00A0EB0C00704711F0004F08BF70471E
:1017900031F000413FF4D5AF0B0C06BF09044FF008
:1017A000100C4FF0000C0B0E04BF09020CF1080CDA
:1017B0000B0F04BF09010CF1040C8B0F04BF89004F
:1017C0000CF1020CCB0F04BF49000CF1010CCCF161
:1017D0002003A0EB0C0022FA03F302FA0CF241EA18
:1017E000030100F10100704720F07F4C80EA030004
:1017F00023F07F47ACEB070303F57C5300F0004078
:1018000003F1FF032DE980494FEA154B09B44FEA74
:10181000144325EA0B4E24EA03480FF2042606EB94
:10182000132749083E785FEA320203FB0667C7F5D3
:10183000000707FB06F64FEA54374FEAD64606F193
:10184000020607FB066CCCF1005C4FEA1C472CEA51
:10185000074C07FB06F40CFB06F504EB15464FEAB4
:10186000961634BF00204FF000404FEAD13706FBF8
:1018700007FC4FEA1C4C0CFB0BF7D21B03FB0CF7CD
:1018800061EB07010CFB0EF7B0EB074072EB174260
:101890000CFB08F734BFA2EB0742B2EB074261EB47
:1018A00017414FEA0C444FEA910706FB07FC4FEA49
:1018B0001C4C0CFB0BF7B0EBC74072EB573203FB31
:1018C0000CF734BFA2EBC742B2EBC74261EB573112
:1018D0000CFB0EF7B0EBC70072EB57720CFB08F76E
:1018E00034BFA2EBC702B2EBC70261EB5771039F93
:1018F0004FEA816141EA921104EBCC044FEAD137FF
:101900004FEA826206FB07FC42EA90124FEA8060CF
:101910004FEA1C4C0CFB0BF7D21B03FB0CF761EBE3
:1019200007010CFB0EF7B0EB074072EB17420CFB04
:1019300008F734BFA2EB0742B2EB074261EB174155
:101940004FEA8C554FEA910704EB9C2406FB07FCF9
:101950004FEA1C4C0CFB0BF7B0EBC74072EB573255
:1019600003FB0CF734BFA2EBC742B2EBC74261EBFB
:1019700057310CFB0EF7B0EBC70072EB57720CFB44
:1019800008F734BFA2EBC702B2EBC70261EB577195
:1019900015EB4C254FEA816141EA92114FEA8262D0
:1019A0004FEAD13742EA901206FB07FC44F10004EB
:1019B0004FEA80604FEA1C4C0CFB0BF7D21B03FB79
:1019C0000CF761EB07010CFB0EF7B0EB074072EB75
:1019D00017420CFB08F734BFA2EB0742B2EB0742F9
:1019E00061EB174115EB1C154FEA813141EA924139
:1019F0004FEA823242EA90424FEA80304FEA0C7658
:101A000044F1000448EA03434EEA0B484FF0000E4D
:101A1000B2EB080C71EB030724BF624639464EEB6C
:101A20000E0E4FF0000B0018524149414BEB0B0BCF
:101A3000B2EB080C71EB03077BF1000B24BF62468D
:101A400039464EEB0E0E4FF0000B00185241494143
:101A50004BEB0B0BB2EB080C71EB03077BF1000BAC
:101A600024BF624639464EEB0E0E51EA020718BFFC
:101A700046F0010616EB0E7655F1000254F1000116
:101A800003D5BDE88901BDE80088BDE88901BDE84E
:101A90000048B619524141EB0101A3F1010370471F
:101AA00080807F7E7D7C7B7A79787776767574739B
:101AB000727171706F6E6E6D6C6C6B6A6A6968685A
:101AC000676666656464636362616160605F5F5EF0
:101AD0005E5D5D5C5C5B5B5A5A5959585857575666
:101AE00056555555545453535252525151505050CB
:101AF0004F4F4F4E4E4D4D4D4C4C4C4B4B4B4A4A1D
:101B00004A49494948484847474747464646454560
:101B10004544444444434343434242424241414199
:101B2000002B26D4770021D01CB54FEA370703B429
:101B30004FF010004FF010014FF000000FBCBDE857
:101B400010400BF1010BBBF1010F08BF5FEA170753
:101B500022BF12F1010211F101014FF0004143F1E6
:101B6000000300F0004043EA00007047F9D3570833
:101B7000DAE746EA064613F1400F4FEA16461FDD44
:101B800013F1200FDFBF16430A46002120335B42CA
:101B9000C8D0C3F1200746EA064602FA07F74FEA23
:101BA000164646EA0706C3F1200722FA03F201FAB5
:101BB00007F721FA03F14FF0000342EA0702B1E709
:101BC00046EA020646EA06464FEA164646EA010695
:101BD000BCBF46EA0646360C4FF000034FF0000249
:101BE0004FF000019EE72DE9C048934630B491E8DC
:101BF000380007C831EA400C48BF34EA430C03D52B
:101C0000FFF7F2FDFFF78CFFF0BCBDE800882DE97F
:101C1000C048934630B491E8380007C810F0804FB0
:101C200008BF13F0804F03D100F005F8FFF778FFED
:101C3000F0BCBDE8008820F07F4780EA030023F075
:101C40007F4C07EB0C03A3F57C5300F00040A3F19D
:101C5000FE0392F0000F00F0B38095F0000F00F04B
:101C600077802DE901494FEA11404FEA144621EAF5
:101C7000004800FB06FC24EA064708FB06F607FBC3
:101C800008F800FB07F718EB06484CEB164C4FEA38
:101C9000124B18EB07484FEA15464CEB174022EA67
:101CA0000B4E0BFB06FC25EA06470EFB06F607FB70
:101CB0000EFE0BFB07F71EEB064E4CEB164C4FF0DF
:101CC00000061EEB074E4CEB174B18EB0B0840F1D0
:101CD000000018EB0E0B58EB000840F100008F1AC3
:101CE0004FF000013CBFC943661B14BFB5EB040CA9
:101CF00000213CBFC943F61B4FEA17444EEA8E0E43
:101D000027EA04454FEA1C4704FB07622CEA074C0C
:101D100005FB07F70CFB05F604FB0CFC16EB07466E
:101D200042EB174216EB0C4642EB1C421BEB06063D
:101D300058EB0202414146EA9E0601D5BDE8018901
:101D4000B619524141EB0101A3F10103BDE801893C
:101D50004FEA14454FEA114724EA054621EA074CA9
:101D600005FB07F406FB07F70CFB06F105FB0CFC73
:101D700011EB074144EB17444FEA124711EB0C41BA
:101D800044EB1C4422EA074C05FB07F206FB07F76D
:101D90000CFB06F605FB0CFC16EB074642EB174264
:101DA00016EB0C4642EB1C456A1854F1000148BF83
:101DB0007047B619524141EB0101A3F1010370478D
:101DC00095F0000F37D04FEA11424FEA144721EA4D
:101DD000024624EA074C02FB07F106FB07F70CFB5F
:101DE00006F402FB0CFC14EB074441EB17414FEAED
:101DF000154714EB0C4441EB1C4125EA074C02FB50
:101E000007F506FB07F70CFB06F602FB0CFC16EBCE
:101E1000074645EB174516EB0C4645EB1C421219DD
:101E200051F1000148BF7047B619524141EB010121
:101E3000A3F1010370474FEA14454FEA114724EA22
:101E4000054621EA074C05FB07F106FB07F70CFBEB
:101E500006F24FF0000605FB0CFC12EB074241EBCB
:101E6000174112EB0C4251EB1C4148BF70479218CE
:101E700041EB0101A3F101037047000008B5012106
:101E8000042001F059FE0120ADF8000010208DF86B
:101E9000030003208DF802006946044800F028FC86
:101EA0000121024800F0B8FC08BD00000008014014
:101EB00010B5044602F0CEFC462002F0A1FC02F070
:101EC000F1FC012800D110BD204602F099FC02F07F
:101ED000E9FC012801D10220F5E702F0D3FC002043
:101EE000F1E710B500F09CFC00F004F81020FFF7BB
:101EF000DFFF10BD10B50120FFF7DAFF10BD10B5F0
:101F0000002402F0A7FC472002F07AFC02F0CAFC91
:101F1000012801D1002010BD02F050FC044602F05F
:101F20000BFC02F04BFC00EB042084B202F032FC0C
:101F300002F0A8FC2046EEE700BFFEE70FB410B5A4
:101F4000CCB002AC4FA801904FF4947102A8019B51
:101F50004E9AFEF7F7F9002001900EA1104802F00A
:101F6000FDF90BE014F8011B0D4802F043F900BF26
:101F700040210B4802F075F80028F9D0207800289D
:101F8000F0D108A1064802F0E9F94CB010BC5DF8A8
:101F900014FB00005B4C4F475D202F3E20000000EB
:101FA000003801400D0A000010B5002415480068F3
:101FB00020F00F00134908600846006840F0080050
:101FC000086004E0601CC4B2012002F08FFB0E48E0
:101FD000006808B1642CF5DB642C01DB012010BD26
:101FE000002404E0601CC4B2012002F07FFB06481C
:101FF000006808B9642CF5DB642C01DB0120EEE7F6
:102000000020ECE7040801402001214208B501212D
:10201000042001F091FD4FF48070ADF80000102015
:102020008DF8030003208DF802006946064800F091
:102030005FFB4FF48071044800F0EEFB00F072F893
:10204000FFF7B2FF08BD00000008014010B50024F2
:1020500004E0601CC4B2012002F048FB0D48006897
:1020600008B1642CF5DB002404E0601CC4B201203C
:1020700002F03CFB0748006808B9642CF5DB282017
:1020800002F034FB0348006808B1012010BD0020B5
:10209000FCE700002001214270B50024002506E085
:1020A0006006040EFFF7D2FF0443681CC5B2082D7A
:1020B000F6DB204670BD2DE9FC4105460E4617466D
:1020C000984600F02FF8FFF76FFF30BB002405E0C3
:1020D000FFF7E2FF0DF80400601CC4B2052CF7DB2B
:1020E0009DF800009DF8011008449DF80210084476
:1020F0009DF8031008449DF80410884210D19DF803
:10210000000028709DF8010030709DF802003870C2
:102110009DF8030088F8000002E00120BDE8FC8182
:102120000020FBE710B50C48006820F00F000A49BA
:1021300008600846006840F0030008600020074976
:102140000860142002F0ACFA01200549C1F8A00192
:102150001E2002F0CBFA10BD04080140A00121426C
:10216000000021427047000010B580210348FEF7AF
:10217000CFFB00200249088010BD0000580100205C
:102180005000002070B50546002400BF00F0AAF9F9
:1021900080B90DA10E48FEF7C8FA044654B13A21A1
:1021A0002046FEF7A6FA044614B1641C204670BD12
:1021B0000020FCE7052002F073FA681E85B2002DAE
:1021C000E4DC0020F3E700004950442C000000004C
:1021D0005801002010B5FFF7C7FF31A0FFF7AEFE92
:1021E00003E04FF4FA7002F05BFA34A134A000F07F
:1021F0002BF90028F5D134A0FFF7A0FE2EA138A0BE
:1022000000F022F94FF4FA7002F04AFA2AA137A03E
:1022100000F01AF94FF4FA7002F042FA37A0FFF713
:102220008DFE03E04FF4FA7002F03AFA23A13EA0CB
:1022300000F00AF90028F5D13FA0FFF77FFE03E088
:102240004FF4FA7002F02CFA1CA145A000F0FCF843
:102250000028F5D146A0FFF771FE03E04FF4FA70B5
:1022600002F01EFA48A14AA000F0EEF80028F5D1CD
:1022700050A0FFF763FE03E04FF4FA7002F010FA8B
:1022800053A155A000F0E0F80028F5D101205D49E8
:1022900008705DA0FFF752FE65A0FFF74FFE10BD6E
:1022A000302E204154202D20B2E2CAD44D43552D6A
:1022B00038323636CDA8D1B6000000004F4B0000B2
:1022C00041540D0A00000000312E2041542B52537E
:1022D00054202D20C8EDB8B4CEBB383236360000BD
:1022E00041542B5253540D0A0000000041542B431B
:1022F0004950434C4F53450D0A000000322E2041F7
:10230000542B43574D4F44453D312C31202D20C98E
:10231000E8D6C338323636B9A4D7F7C4A3CABDCE7F
:10232000AA5354410000000041542B43574D4F44E1
:10233000453D310D0A000000332E2041542B4357F8
:10234000444843503D312C31202D20CAB9C4DC53C0
:102350005441C4A3CABDCFC244484350000000004A
:1023600041542B4357444843503D312C310D0A0012
:10237000342E2041542B43574A4150202D20C1ACCC
:10238000BDD3574946490000474F542049500000EB
:1023900041542B43574A41503D224F6E65506C7556
:1023A000733750726F222C2270617373776F72646F
:1023B000220D0A00352E2041542B434950535441DD
:1023C0005254202D20C1ACBDD3B7FECEF1C6F700CC
:1023D000434F4E4E4543540041542B4349505354B0
:1023E0004152543D22544350222C223139322E3155
:1023F00036382E33332E313032222C313838330DEB
:102400000A00000014000020362E204553503832B8
:10241000363620496E6974204F4B202D204553508D
:1024200038323636B3F5CABCBBAFB3C9B9A6000063
:1024300045535038323636B3F5CABCBBAF0909092B
:102440005B4F4B5D000000002DE9F04104460D4656
:10245000C8262046FEF77BF987B23A4621460D484A
:1024600001F0A0FF0FE000F03DF848B929460A4806
:10247000FEF75BF920B1FFF777FE0020BDE8F081A1
:102480000A2002F00DF93000A6F10101CEB2EAD126
:102490000120F3E7004400405801002030B589B026
:1024A00004460D46FFF760FE2A4608A101A8FDF785
:1024B00063FF0AA101A8FFF7C7FF20B92A462146FA
:1024C000074801F06FFF09B030BD000041542B43B5
:1024D000495053454E443D25640D0A003E0000001E
:1024E000004400400A48008808B9012070470848A5
:1024F000008808490988884203D1002004490880DF
:10250000F4E703480088034908800120EEE7000053
:10251000500000205200002010B50A2002F0C0F840
:102520000748006838B90748006808B9012000E08A
:10253000002004490860012000F06AF810BD000086
:10254000008121429001214210B50A2002F0A8F832
:102550000848006850B90848007808B9012000E030
:10256000002005490870002004490870022000F08E
:102570004FF810BD0481214200000020010000201E
:102580000EB50121084601F0D7FA00F061F90021EB
:10259000012000F08DF80120019000208DF8080046
:1025A0000C208DF8090001208DF80A0001A800F028
:1025B00035F80121084600F07BF802200190002048
:1025C0008DF808000C208DF8090001208DF80A0014
:1025D00001A800F023F806208DF8000002208DF8F5
:1025E00001008DF8020001208DF80300684600F01C
:1025F000B7FE07208DF8000002208DF801008DF84D
:10260000020001208DF80300684600F0A9FE0EBD0F
:10261000014908607047000014040140002123496B
:102620008279002A3AD00A46126803689A430B4618
:102630001A600A1D126803689A430B1D1A6002791A
:1026400011440A6803681A430A60184A083212687B
:1026500003689A43154B08331A601A1D1268036801
:102660009A43124B0C331A604279102A0ED11A1F6A
:10267000126803681A430D4B08331A601A1D12685A
:1026800003681A43094B0C331A600DE0074942797D
:1026900011440A6803681A430A6005E0027911448C
:1026A0000A6803689A430A6070470000000401400A
:1026B00030B500228B071C0F0F2303FA04F20B4BDB
:1026C0008C1053F824309343084C8D1044F8253077
:1026D00023468C1053F824308C07240F00FA04F49E
:1026E0002343024C8D1044F8253030BD08000140D2
:1026F0002DE9F04102460025002600200023002499
:10270000002791F803C00CF00F0591F803C00CF0FE
:10271000100CBCF1000F03D091F802C04CEA050583
:1027200091F800C0BCF1000F31D0146800202BE0FC
:102730004FF0010C0CFA00F3B1F800C00CEA0306EC
:102740009E4220D183004FF00F0C0CFA03F7BC43DC
:1027500005FA03FC4CEA040491F803C0BCF1280F0D
:1027600006D14FF0010C0CFA00FCC2F814C00AE0CC
:1027700091F803C0BCF1480F05D14FF0010C0CFAE1
:1027800000FCC2F810C0401C0828D1D31460B1F876
:1027900000C0BCF1FF0F34DD546800202EE000F1D2
:1027A000080C4FF0010808FA0CF3B1F800C00CEA6D
:1027B00003069E4221D183004FF00F0C0CFA03F761
:1027C000BC4305FA03FC4CEA040491F803C0BCF1D5
:1027D000280F05D100F1080C08FA0CF8C2F8148093
:1027E00091F803C0BCF1480F07D100F1080C4FF07D
:1027F000010808FA0CF8C2F81080401C0828CED353
:102800005460BDE8F0810246002093680B400BB194
:10281000012000E0002070470161704700BFFEE723
:1028200008B50121082001F087F9C020ADF80000AB
:1028300003208DF8020014208DF803006946034838
:10284000FFF756FF02F01EF808BD0000000C014023
:1028500008B50121082001F06FF90120ADF8000052
:1028600048208DF8030069460648FFF741FF022023
:10287000ADF8000048208DF8030069460148FFF7D5
:1028800037FF08BD000C014008B50121142001F0FC
:1028900053F91020ADF800008DF8030003208DF8E7
:1028A000020069460A48FFF723FF10210848FFF796
:1028B000B3FF4FF40050ADF8000069460548FFF73C
:1028C00017FF4FF400510348FFF7A6FF08BD0000B3
:1028D000000801400010014070B5FFF710FB0646EC
:1028E00004F072F90546044904F0ACF804464FF0D0
:1028F0007E5104F0B1F970BDCDCC8C3F10B50446CB
:10290000207B012802D12068FDF7E7FC0020206031
:102910006060A060207310BD0246002301230DE01B
:1029200002F07F000870D2092AB1087840F08000D8
:102930000870491C01E0184670475B1C042BEFDD52
:102940004FF0FF30F8E770B504460E4600252068CA
:1029500098B9012020733046FDF790FC2060206874
:10296000E0B100206060A66003E0002021684855C7
:102970006D1CA068A842F8D810E00220207303E084
:102980000020216848556D1CA068A842F8D8002096
:102990006060A068B04201D20020206070BD0000DD
:1029A0002DE9FF4F83B082468B469146159C00254A
:1029B000002002900F2701904846FDF7C8FE0FFA4D
:1029C00080F8B9F1000F03D1012007B0BDE8F08F06
:1029D00008F10200384487B2109808B145F00205AA
:1029E000129878B145F004051298FDF7B0FEC0B218
:1029F00002901398FDF7ABFE01460298001D0844B3
:102A0000384487B2119820B1012804D0022808D197
:102A100004E000BF07E045F00C0504E045F01405B4
:102A200001E00220D1E700BF149808B145F0240569
:102A3000BAF1000F02D0BBF1000F01D10320C4E7AF
:102A400045F0C0055046FDF782FE06465846FDF7A4
:102A50007EFE3044001D384487B239462046FFF7D9
:102A600072FF206808B90420AFE739462068FDF7F7
:102A70004FFF10216268501C606020688154D4E9C7
:102A80000023D118781FFFF747FF00B2019001988B
:102A9000002804DA2046FFF731FF052095E761683A
:102AA00001980844606000216268501C60602068E2
:102AB000815404216268501C6060206881544D215B
:102AC0006268501C60602068815451216268501C0B
:102AD00060602068815454216268501C60602068E6
:102AE00081546268501C60602068815404216268CF
:102AF000501C6060206881546168481C60602068D8
:102B000045540698010A6268501C60602068815430
:102B10000698C1B26268501C606020688154C8F396
:102B200007216268501C6060206881546268501CF4
:102B30006060206800F80280D4E9001288184246DC
:102B40004946FDF7E0FD60684044606005F0040020
:102B5000B8B30026139808B938A013901298FDF75F
:102B6000F6FD86B2310A6268501C606020688154AC
:102B70006268501C606020688654D4E9001288188E
:102B800032461299FDF7BFFD6068304460601398CB
:102B9000FDF7DDFD86B2310A6268501C6060206876
:102BA00081546268501C606020688654D4E9001229
:102BB000881832461399FDF7A6FD606830446060BE
:102BC00000BF05F08000C8B15046FDF7C0FD86B2D9
:102BD000310A6268501C6060206881546268501C31
:102BE000606020688654D4E9001288183246514645
:102BF000FDF789FD60683044606000BF05F040006B
:102C0000C8B15846FDF7A3FD86B2310A6268501C70
:102C10006060206881546268501C6060206886543F
:102C2000D4E90012881832465946FDF76CFD6068F9
:102C30003044606000BF0020C7E6000000000000D4
:102C40002DE9FF4F83B0834690469946139C00269A
:102C500000250020029001900027BBF1000F03D156
:102C6000012007B0BDE8F08F00250AE00498405D20
:102C7000232803D00498405D2B2801D10220F0E7DF
:102C80006D1C0498405D0028F0D147F03007119882
:102C900008B147F0010705EB0900861C109820B128
:102CA000012804D002280AD105E000BF09E047F05E
:102CB0000207B61C05E047F00407B61C01E003203C
:102CC000CFE700BF98F80000022822D14FF0000A99
:102CD00000BF50460AF1010A18F800007D28F8D11B
:102CE000AAF1030A0AF1070002900298A9EB000A70
:102CF000F01CA0EB0A012046FFF725FE206808B96A
:102D00000420AEE7F21CA2EB0A012068FDF700FEEA
:102D10000BE0F11C2046FFF716FE206808B90420DE
:102D20009FE7F11C2068FDF7F3FD6168481C6060B7
:102D300020684754D4E9000281183046FFF7ECFDC3
:102D400001900198002804DA2046FFF7D7FD0520FE
:102D500087E76168019808446060C5F307216268ED
:102D6000501C6060206881546268501C606020685C
:102D70008554D4E9001288182A460499FDF7C3FC4B
:102D8000606828446060109860B14FEA1B21626857
:102D9000501C6060206881546268501C606020682C
:102DA00000F802B0B8F1000F19D098F8000002281E
:102DB0000BD1D4E9001288184146029AFDF731FD83
:102DC000616802980844606009E0D4E9001288183C
:102DD0004A464146FDF725FD606848446060002092
:102DE0003FE770B505460C4604212046FFF7ABFDD2
:102DF000206808B9012070BD70216268501C6060B5
:102E00002068815402216268501C606020688154EF
:102E100029126268501C6060206881546268501CEE
:102E20006060206885540020E5E770B505460C46D3
:102E300004212046FFF787FD206808B9012070BDF6
:102E400062216268501C60602068815402216268BF
:102E5000501C60602068815429126268501C6060B8
:102E6000206881546268501C60602068855400208E
:102E7000E5E72DE9FF5F8046174699460E9C002640
:102E8000B246B3460025B8F1000F03D1012004B0CB
:102E9000BDE8F09F0BE057F8250008B90220F6E7DF
:102EA00057F82500FDF753FC0644681CC5B24D4594
:102EB000F1DB09EB4900801C00EB060A0AF1050171
:102EC0002046FFF740FD206808B90320DFE7822194
:102ED0006268501C606020688154D4E90002811847
:102EE0005046FFF719FD0FFA80FBBBF1000F04DA23
:102EF0002046FFF703FD0420C9E76068584460607E
:102F00004FEA18216268501C606020688154626832
:102F1000501C6060206800F80280002524E057F80B
:102F20002500FDF714FC0646C6F307216268501C15
:102F30006060206881546268501C6060206886541C
:102F4000D4E90023D01857F825103246FDF7DBFBF3
:102F50006068304460600198C1B26268501C606073
:102F600020688154681CC5B24D45D8DB00208EE72F
:102F7000F0B504460D4626460123002010600021CE
:102F800014E0775C07F07F07106807FB0300106010
:102F9000705C00F0800008B9481CF0BDDB01B3F59F
:102FA000001F02D36FF00100F7E7491CA942E8DBDC
:102FB0004FF0FF30F1E72DE9F84380460C46154607
:102FC0001E462F2108F10600FDF793FB074600205F
:102FD000009017B90120BDE8F8837F1C6A460421E0
:102FE00008F10100FFF7C4FF2520FDF747F9206035
:102FF000206808B90220EEE725212068FDF788FC4B
:10300000242239462068FDF70CFC243700982C3820
:1030100030803188481CFDF731F92860286820B9D4
:103020002068FDF75AF90320D5E73288511C28683B
:10303000FDF76EFC328839462868FDF7F2FB002068
:10304000C9E701464878022801D0012070478878F6
:1030500010B18878012801D1C878F7E7FF20F5E79B
:103060002DE9FC5F81460D4614461E46DDE90C8BBA
:1030700099F8000000F00F0A002001900AF0080003
:103080000090CAF341008BF8000001AA042109F165
:103090000100FFF76DFF4844471C0198022802D346
:1030A0000AF0010010B1FF20BDE8FC9F7878397864
:1030B00040EA012020802088801C0199884201D9A3
:1030C000FF20F1E754A1B81CFDF72FFB08B10F203A
:1030D000EAE79BF8000020B101283DD0022877D113
:1030E0003BE0009808B1FF20DEE72188481CFDF78F
:1030F000C5F82860286808B9FF20D5E72288511C48
:103100002868FDF705FC2288B91C2868FDF789FBB3
:103110000198801E2188401AA8F80000B8F8001015
:10312000481CFDF7ABF83060306820B92868FDF71F
:10313000D4F8FF20B8E7B8F80020511C3068FDF73C
:10314000E7FBB8F80020B4F800C0BB1C0CEB03018F
:103150003068FDF766FB4FE000BF2088801C0199B6
:10316000884201D9FF209FE72088C01C395C208855
:10317000801C385C41EA00210E9801800E9808B945
:10318000FF2091E72188481CFDF778F8286028681F
:1031900008B9FF2088E72288511C2868FDF7B8FB92
:1031A0002288B91C2868FDF73CFB0198001F218884
:1031B000401AA8F80000B8F80010481CFDF75EF8A7
:1031C0003060306828B92868FDF787F8FF206BE782
:1031D00010E0B8F80020511C3068FDF799FBB8F8F2
:1031E0000020B4F800C03B1D0CEB03013068FDF774
:1031F00018FB01E0FF2057E700BF2B212846FDF711
:1032000078FA20B923212846FDF773FA08B1FF2088
:103210004AE7002048E7000024637265710000005F
:1032200001464878022801D001207047887820B9EB
:10323000C8780A2801D10020F7E70120F5E7014608
:103240004878022801D001207047887820B9C878D2
:103250000A2801D10020F7E70120F5E70146487868
:10326000022801D001207047887820B9C8780A2840
:1032700001D10020F7E70120F5E702465078022847
:1032800001D0012070479078B0EB112F05D1D07894
:10329000CBB2984201D10020F4E70120F2E7000010
:1032A000F8B50446FF2720780511012D01DB0E2D0E
:1032B00001DD3846F8BD032D24D1002000906A4678
:1032C0000421601CFFF754FE2044461C009802288D
:1032D00003D3207800F0010008B1FF20EAE77078FE
:1032E000317840EA0120801C0099884201D9FF20F2
:1032F000E0E706A1B01CFDF718FA08B10F2700E0BF
:10330000032700E02F463846D4E7000024637265A7
:10331000710000000146FF208A78A2B9CA78142AF9
:1033200011D10A7932B1012A05D0022A04D0802AAB
:1033300006D103E000BF00BF002003E0012001E050
:10334000022000BF00BF7047014601208A781AB9E9
:10335000CA781E2A00D10020704700BFFEE77047E0
:1033600070B5002100230F22C47804B3154C2468E3
:1033700004F4E064C4F5E064210AC1F10403CA4026
:10338000447804FA03F184781440214309010E4C77
:103390000678A155047804F01F050124AC40057897
:1033A0006D11AD0005F1E025C5F8004109E0047894
:1033B00004F01F050124AC40044D0678761145F851
:1033C000264070BD0CED00E000E400E080E100E08C
:1033D00002490143024A1160704700000000FA05EB
:1033E0000CED00E070B5BAB0002006900790089090
:1033F00009900126364805682B4636A236A12AA830
:10340000FCF7BAFF2B4636A233A11AA8FCF7B4FF8B
:103410002B4634A230A10AA8FCF7AEFF0AA81AABCB
:103420002AAA31A10090404800F098FF06A8002188
:1034300002910391CDE90410009133020AAA01918F
:103440001AA92AA8FFF7ACFA00283BD1079A91B233
:103450000698FFF723F8FA20FEF794FE0446002CA6
:103460002CD02046FFF71CFF022827D12046FFF76B
:10347000E8FD06281DD2DFE800F003080C10141840
:103480002AA0FEF75BFD002617E02DA0FEF756FDF3
:1034900013E032A0FEF752FD0FE039A0FEF74EFD1B
:1034A0000BE03FA0FEF74AFD07E046A0FEF746FD11
:1034B00003E04FA0FEF742FD00BF00BF06A8FFF7E4
:1034C0001DFA02E051A0FEF739FD30463AB070BD5A
:1034D000E8F7FF1F3131310025735F2558000000E8
:1034E00032323200333333004F6E654E65745F44C1
:1034F00065764C696E6B0D0A50524F49443A20254F
:10350000732C09415549463A2025732C09444556E8
:1035100049443A2573092D2D2D20C1ACBDD3D6D0F9
:103520002E2E2E2E0D0A00000038014054697073B3
:103530003A09C1ACBDD3B3C9B9A60D0A0000000059
:103540005741524E3A09C1ACBDD3CAA7B0DCA3BAA9
:10355000D0ADD2E9B4EDCEF30D0A00005741524E82
:103560003A09C1ACBDD3CAA7B0DCA3BAB7C7B7A8E4
:10357000B5C4636C69656E7469640D0A000000006F
:103580005741524E3A09C1ACBDD3CAA7B0DCA3BA69
:10359000B7FECEF1C6F7CAA7B0DC0D0A00000000E6
:1035A0005741524E3A09C1ACBDD3CAA7B0DCA3BA49
:1035B000D3C3BBA7C3FBBBF2C3DCC2EBB4EDCEF3FA
:1035C0000D0A00005741524E3A09C1ACBDD3CAA7FB
:1035D000B0DCA3BAB7C7B7A8C1B4BDD328B1C8C8B7
:1035E000E7746F6B656EB7C7B7A8290D0A000000B6
:1035F0004552523A09C1ACBDD3CAA7B0DCA3BACE7A
:10360000B4D6AAB4EDCEF30D0A0000005741524ED5
:103610003A094D5154545F5061636B6574436F6E4A
:103620006E656374204661696C65640D0A00000074
:1036300070B588B005460C460020049005900690B1
:103640000790224629460FA0FEF778FC2046FDF79A
:103650007EF8064604A80121002200923346CDE9F7
:1036600001210390224629460A20FFF7E9FA38B9DA
:10367000059A91B20498FEF711FF04A8FFF73EF9EE
:1036800008B070BD5075626C69736820546F7069C2
:10369000633A2025732C204D73673A2025730D0A59
:1036A000000000002DE9F04F8FB0814600200B9004
:1036B0000C900D900E900A900990089007900027AA
:1036C00006900026002482464846FFF7E9FD07469B
:1036D000F81E0D2872D2DFE800F01A7C849CB6D662
:1036E000BED6CAD6D6D6070007AB0AAA09A948464D
:1036F000FFF761FC06464EB9BDF81C307BA0DDE942
:103700000912FEF71BFC0BA8FFF7F8F8BEE0804893
:1037100006A907AA0AABCDE90021029008AA09A9C7
:103720004846FFF79DFC0646002E51D1BDF81C000F
:103730000090BDF8202077A0DDE90913FEF7FEFB1D
:103740000A9800F02BFF8046B8F1000F08D100F076
:10375000FFFE83465A467EA1824800F0FFFD34E01A
:1037600081A1404600F0FAFE054681A17D482A6A03
:1037700000F0F4FD7EA17B482A6900F0EFFD81A1F5
:103780002869FCF7D2FF70B17FA1404600F0E6FE49
:103790000546686918B100207D49086015E00120E0
:1037A0007B49086011E078A1404600F0D7FE05464D
:1037B000686920B101207749087003E063E00020C8
:1037C00074490870002074490870404600F094FE67
:1037D0005CE04846FFF724FD10B970A0FEF7AEFB91
:1037E00054E04846FFF73AFD90B974A0FEF7A6FBF7
:1037F0000BA90A20FFF719FB50B976A0FEF79EFB34
:103800000C9A91B20B98FEF749FE0BA8FFF776F8D9
:103810003CE03F4801884846FFF72FFD90B973A070
:10382000FEF78CFB0BA90A20FFF7DBFA50B975A055
:10383000FEF784FB0C9A91B20B98FEF72FFE0BA8B3
:10384000FFF75CF822E04846FFF7F9FC10B974A0D6
:10385000FEF774FB1AE04846FFF75CFD18B976A046
:10386000FEF76CFB02E07BA0FEF768FB0EE048462B
:10387000FFF76AFD18B97EA0FEF760FB02E083A0A7
:10388000FEF75CFB02E04FF0FF3600BF00BFFEF723
:103890006BFC701C10B90FB0BDE8F08F7D210A9849
:1038A000FCF727FF0446A4B1701C90B1641C06E02D
:1038B00014F8012B50460AF1010A03A90A54207892
:1038C000302802DB20783928F2DD03A8FCF704FF5A
:1038D00082460F2F01D0032F05D10998FCF7FDFC7C
:1038E0000A98FCF7FAFC00BFD5E70000636D646935
:1038F000643A2025732C207265713A2025732C20A0
:103900007265715F6C656E3A2025640D0A000000D7
:1039100054000020746F7069633A2025732C207462
:103920006F7069635F6C656E3A2025642C2070614E
:10393000796C6F61643A2025732C207061796C6F0B
:1039400061645F6C656E3A2025640D0A000000001A
:103950004572726F72206265666F72653A205B25F0
:10396000735D0A0000380140646576696365000094
:103970006A736F6E5F76616C75653A205B25735D67
:103980000A0000004C45440076616C75650000003B
:103990009001214200000020010000205469707352
:1039A0003A094D515454205075626C697368205324
:1039B000656E64204F4B0D0A00000000546970735F
:1039C0003A09526576205075626C69736852656376
:1039D0000D0A0000546970733A0953656E642050F3
:1039E00075626C69736852656C0D0A005469707376
:1039F0003A09526576205075626C69736852656C3D
:103A00000D0A0000546970733A0953656E642050C2
:103A100075626C697368436F6D700D0A0000000079
:103A2000546970733A09526576205075626C6973F7
:103A300068436F6D700D0A00546970733A094D51F7
:103A4000545420537562736372696265204F4B0D45
:103A50000A000000546970733A094D5154542053C0
:103A60007562736372696265204572720D0A0000A7
:103A7000546970733A094D51545420556E53756210
:103A8000736372696265204F4B0D0A00546970734D
:103A90003A094D51545420556E53756273637269DF
:103AA0006265204572720D0A0000000070B586B094
:103AB00004460D46002600200290039004900590D5
:103AC00006E054F826100DA0FEF738FA701CC6B2B6
:103AD000AE42F6DB02A82B462246002100901420BD
:103AE000FFF7C7F938B9039A91B20298FEF7D6FCEE
:103AF00002A8FEF703FF06B070BD000053756273A5
:103B0000637269626520546F7069633A2025730D92
:103B10000A0000007047000029B1064AD26902433A
:103B2000044BDA6104E0034AD2698243014BDA6153
:103B3000704700000010024029B1064A9269024312
:103B4000044B9A6104E0034A92698243014B9A61F3
:103B5000704700000010024030B500210022002410
:103B600000232D4D6D6805F00C0121B1042905D00D
:103B7000082923D105E0294D056022E0274D056085
:103B80001FE0254D6D6805F47012234D6D6805F436
:103B90008034022505EB92421CB9214D5543056046
:103BA0000BE01D4D6D6805F400351DB11C4D5543EE
:103BB000056002E0194D5543056002E0174D0560B0
:103BC00000BF00BF144D6D6805F0F0010909154DE7
:103BD0006B5C0568DD4045600F4D6D6805F4E06184
:103BE000090A104D6B5C4568DD4085600A4D6D68C3
:103BF00005F46051C90A0B4D6B5C4568DD40C5603A
:103C0000054D6D6805F44041890B074D6B5CC56837
:103C1000B5FBF3F5056130BD0010024000127A00DB
:103C200000093D003000002040000020704710B522
:103C300000F002F810BD00000CB5002001900090CB
:103C40003348006840F480303149086000BF304894
:103C5000006800F4003000900198401C019000982A
:103C600018B90198B0F5A06FF1D12948006800F4A7
:103C7000003010B10120009001E000200090009879
:103C8000012843D12348006840F010002149086012
:103C90000846006820F0030008600846006840F00D
:103CA000020008601A4840681949486008464068A0
:103CB00048600846406840F48060486008464068B4
:103CC00020F47C1048600846406840F4E8104860E2
:103CD0000846006840F08070086000BF0C4800682B
:103CE00000F000700028F9D00948406820F0030077
:103CF000074948600846406840F00200486000BF3D
:103D00000348406800F00C000828F9D10CBD000001
:103D10000010024000200240042808D14FF0E021AA
:103D2000096941F004014FF0E022116107E04FF012
:103D3000E021096921F004014FF0E0221161704790
:103D40007047000010B51348006840F001001149A9
:103D5000086008464068104908400E494860084617
:103D600000680E4908400B4908600846006820F4C6
:103D7000802008600846406820F4FE0048604FF448
:103D80001F008860FFF753FF4FF000600449086090
:103D900010BD0000001002400000FFF8FFFFF6FE1B
:103DA00008ED00E010B50121880700F0A4F818B173
:103DB0000121880700F090F810BD7FB505460C463C
:103DC00001210846FFF7A8FEADF80850ADF8044001
:103DD0000020ADF80A00ADF8060001A94FF08040C0
:103DE00000F0A4F801221146900700F095F81C207D
:103DF0008DF8000000208DF8010003208DF80200EE
:103E000001208DF803006846FFF7AAFA0121880710
:103E100000F065F87FBD000010B50121114800F0E9
:103E20006AF8F0B101210F4800F056F80E4800780A
:103E300088B10E48006808B9012000E000200B4955
:103E400008600B48D0F8800108B9012000E000208C
:103E50000849086005E00120044908600449C1F8E8
:103E6000800110BD0004004000000020B401224287
:103E700000002142800121427FB505460C46012108
:103E80000220FFF749FEADF80850ADF804400020CD
:103E9000ADF80A00ADF8060001A90E4800F046F89A
:103EA000012211460B4800F037F81D208DF8000064
:103EB00000208DF8010003208DF8020001208DF80C
:103EC00003006846FFF74CFA0121024800F007F8AA
:103ED0007FBD000000040040CA430282704721B148
:103EE000028842F00102028004E002884FF6FE736D
:103EF0001A400280704730B502460020002300249B
:103F0000158A05EA0103958905EA010413B10CB18C
:103F1000012000E0002030BD1AB183890B4383816A
:103F200002E083898B43838170470000002202886E
:103F30001D4B98420ED01D4B98420BD0B0F1804FD4
:103F400008D01B4B984205D01A4B984202D01A4B0E
:103F5000984204D14FF68F731A404B881A43174B7F
:103F6000984207D0164B984204D04FF6FF431A40B0
:103F7000CB881A4302808B8883850B8803850A4B84
:103F800098420BD0094B984208D00E4B984205D06E
:103F90000D4B984202D00D4B984201D10B7A03860B
:103FA0000123838270470000002C0140003401404F
:103FB0000004004000080040000C004000100040D9
:103FC000001400400040014000440140004801400E
:103FD00010B540F22551044800F050F818B12021E6
:103FE000014800F029F810BD0038014010B540F23A
:103FF00025510E4800F042F8B0B10D4800888028E5
:1040000002D300200A4908800848001D0088C1B278
:10401000074802880088401C054B188005488154D9
:104020002021024800F008F810BD000000440040C4
:10403000500000205801002001F40072B2F5007F0A
:1040400000D100BFCA430280704721B1828942F487
:104050000052828104E082894DF6FF731A4082810A
:10406000704702460020B1F5007F00D100BF1388E1
:104070000B400BB1012000E00020704770B50246F4
:10408000002400230025002040F66A16B14200D12A
:1040900000BFC1F3421501F01F03012606FA03F326
:1040A000012D02D19689334006E0022D02D1168AF5
:1040B000334001E0968A33400C12012606FA04F4DC
:1040C0001688344013B10CB1012000E0002070BD0F
:1040D000F0B50346002400260025002040F66A17AC
:1040E000B94200D100BF1846C1F3421401F01F06C7
:1040F000012707FA06F5012C01D10C3004E0022C4F
:1041000001D1103000E014301AB107682F43076066
:1041100002E00768AF430760F0BD00002DE9F047FB
:1041200086B005460E460024A24600BFA1460027E1
:10413000B08900B100BF2F462C8A4CF6FF700440B6
:10414000F08804432C82AC894EF6F3100440B0880A
:1041500031890843718908430443AC81AC8A4FF626
:10416000FF400440B0890443AC8201A8FFF7F4FC8F
:104170001F48874202D1DDF810A001E0DDF80CA055
:10418000A88900F4004040B10AEBCA0000EB0A1015
:1041900031684900B0FBF1F807E00AEBCA0000EB18
:1041A0000A1031688900B0FBF1F86420B8FBF0F028
:1041B00004012009642101FB1089A88900F4004052
:1041C00040B1322000EBC900B0FBF1F000F0070075
:1041D000044308E0322000EB09106421B0FBF1F049
:1041E00000F00F0004432C8106B0BDE8F08700000A
:1041F00000380140C1F308028280704700BFFEE72B
:1042000010B586B0044601210420FFF795FC01217A
:104210008803FFF791FC18208DF817004FF4007009
:10422000ADF8140003208DF8160005A91E48FEF70E
:104230005FFA04208DF817000002ADF81400032087
:104240008DF8160005A91848FEF752FA01940020CF
:10425000ADF810000C20ADF80E000020ADF80C00F9
:10426000ADF80A00ADF8080001A91048FFF756FFA5
:1042700001210E48FFF7E9FE012240F225510B48CB
:10428000FFF726FF25208DF8000001208DF80300A0
:1042900000208DF8010002208DF802006846FFF72B
:1042A0005FF806B010BD0000000801400038014072
:1042B00010B586B0044601210420FFF73DFC012122
:1042C0004804FFF729FC18208DF817000420ADF8EA
:1042D000140003208DF8160005A91E48FEF708FA01
:1042E00004208DF817000820ADF8140003208DF885
:1042F000160005A91748FEF7FBF901940020ADF858
:1043000010000C20ADF80E000020ADF80C00ADF848
:104310000A00ADF8080001A90F48FFF7FFFE0121D0
:104320000D48FFF792FE012240F225510A48FFF79F
:10433000CFFE26208DF8000001208DF8030000201C
:104340008DF801008DF802006846FFF709F806B005
:1043500010BD000000080140004400400FB430B51B
:10436000CBB0054601AC50A800904FF4947101A861
:10437000009B4F9AFBF7E6FF002000900BE014F83B
:10438000011B2846FFF736FF00BF40212846FFF7F4
:1043900068FE0028F9D020780028F0D14BB030BC5E
:1043A0005DF814FB2DE9F04107460C461546002642
:1043B0000DE014F8011B3846FFF71CFF00BF402139
:1043C0003846FFF74EFE0028F9D0701C86B2AE4288
:1043D000EFDBBDE8F081490050EAC12018BF04209E
:1043E0004A0D18BF40F0010040F2FF72B2EB515F7E
:1043F00008BF40F00200012808BF052070472DE9E2
:10440000F0414F1E00EBC7010446D1E900011546FB
:104410001E4637F006020DD02A46334601F0CAFF89
:104420007F1E04EBC703D3E9002301F02DFD37F015
:104430000602F1D1022F25D0042F13D0062F18BF6A
:10444000BDE8F0812A46334601F0B4FFD4E90A23DF
:1044500001F01AFD2A46334601F0ACFFD4E90823E7
:1044600001F012FD2A46334601F0A4FFD4E90623E9
:1044700001F00AFD2A46334601F09CFFD4E90423EB
:1044800001F002FD2A46334601F094FFD4E90223ED
:1044900001F0FAFC2A46334601F08CFFD4E90023F0
:1044A000BDE8F04101F0F0BC00221346104601497E
:1044B00001F0A6BD0000F03F01F0E6BC002213466B
:1044C0001046114601F09CBD40F2013200204FF031
:1044D000E04102F0C1BC0000024A0020110702F0D6
:1044E000BBBC000001FDFFFF30380A2801D20120CB
:1044F000704700207047000070B5044622E0256830
:10450000A08900F4807020B9A06810B1A068FFF7FE
:10451000F3FFA08900F4807028B9206918B10B4915
:10452000206909688847A08900F4007028B9206ACA
:1045300018B10649206A0968884720460349096876
:1045400088472C46002CDAD170BD00004C000020BA
:1045500001480068704700004400002070B505461F
:104560000E46AC6800E024682CB13146206A00F0A9
:104570004FF80028F7D1204670BD000010B5282064
:1045800005490968884704461CB128212046FCF7E4
:10459000E1F9204610BD00004800002010B5044697
:1045A00000221146204600F001F810BD2DE9F04729
:1045B00080460D4616460024FFF7E0FF0746002020
:1045C000124908600FB9BDE8F087404601F000FCD1
:1045D00081464946384600F0C1FE044624B93846B3
:1045E000FFF78AFF0020EEE766B1204601F0F0FBFE
:1045F0000446207830B13846FFF77EFF0348046058
:104600000020E0E705B12C603846DCE744000020DC
:1046100070B504460D462CB9AC4201D0012070BDE6
:104620000020FCE70DB90120F9E705E0207808B982
:104630000020F4E7641C6D1C2078FBF775FE06462D
:104640002878FBF771FE8642F0D02078FBF76CFEED
:1046500006462878FBF768FE301AE0E710B56FF0E1
:104660000400FFF759FB0A4800680A49B0FBF1F063
:10467000094908700846007800EB4001C1EBC01002
:104680004FF6FF7101EAC0000449088010BD000028
:104690001800002000127A002C0000202E000020BC
:1046A0000146114A12884A434FF0E0235A61002222
:1046B0009A611A46126942F001021A6100BF4FF076
:1046C000E022106900F001021AB100F48032002AE1
:1046D000F5D04FF0E022126922F001024FF0E02302
:1046E0001A6100229A6170472E0000200146114A8B
:1046F00012784A434FF0E0235A6100229A611A4629
:10470000126942F001021A6100BF4FF0E022106905
:1047100000F001021AB100F48032002AF5D04FF007
:10472000E022126922F001024FF0E0231A61002218
:104730009A6170472C00002010B58020094908605C
:1047400000F020F840200749091F086000F01AF81F
:1047500040200449086000F015F880200149091F35
:10476000086010BD140C014070B5044600F072F8EA
:10477000204600F045F800F095F8054600F082F874
:10478000284670BD002001E0411CC8B20A28FBDBAE
:104790007047000010B5802007490860FFF7F2FF5E
:1047A000402005490860FFF7EDFF40200249091D40
:1047B0000860FFF7E7FF10BD100C014070B5002442
:1047C000002516E06006040E40200C490860FFF743
:1047D000D9FF0A480838006800F0800008B1601C62
:1047E000C4B240200549091D0860FFF7CBFF681CD3
:1047F000C5B2082DE6DB204670BD0000100C01405C
:1048000070B50446002520E004F0800018B1802037
:104810000F49086003E080200D49091D0860FFF77B
:10482000B1FF40200A490860FFF7ACFF402008496B
:10483000091D0860072D02D18020091F086060064D
:10484000040EFFF79FFF681CC5B2082DDCDB70BDAE
:10485000100C014010B58020094908604020086014
:10486000FFF790FF80200649091D0860FFF78AFFC7
:1048700040200349091D0860FFF784FF10BD0000B8
:10488000100C014010B58020054908604020091F28
:104890000860FFF777FF80200149091F086010BDFD
:1048A000140C014010B580200C490860FFF76AFF26
:1048B00040200A490860FFF765FF0848083800688B
:1048C00000F0800008B1012400E0002440200349EA
:1048D000091D0860FFF756FF204610BD100C01406F
:1048E00086B0002400274FF4E130FFF789FC89A04F
:1048F000FDF724FB88A0FDF721FBFFF7AFFE8BA09F
:10490000FDF71CFB4FF4A060FEF762FD8DA0FDF7E4
:1049100015FBFDF7B9FF91A0FDF710FBFDF798FF20
:1049200093A0FDF70BFBFDF72BFE96A0FDF706FB12
:10493000FDF7A4FA99A0FDF701FBFDF767FB9CA02A
:10494000FDF7FCFAFDF7CDFA9EA0FDF7F7FA4FF45C
:10495000E130FFF7ADFCA0A0FDF7F0FAA3A0FDF752
:10496000EDFAA7A0FDF7EAFAFDF734FC03E04FF4F7
:10497000FA70FFF795FEFEF735FD0028F7D141F6F6
:104980001F4141F28730FFF718FA41F61F4140F608
:10499000C310FFF771FA0020A0490860FA20FFF762
:1049A0007FFE01209E49C1F8800101219D48FFF74B
:1049B0007DF8AEE0282094FBF0F100FB11400028C8
:1049C00061D1994B994A9A499A48FDF774FB462060
:1049D000FFF7CAFE18B9FDF77FFF9749086010215D
:1049E0009648FDF710FF96490870964800780A2807
:1049F00014D1904800785A280DDA8C4800781E2887
:104A000009DA91498C48006802F0F2F803D20020DC
:104A10008E49087002E001208C49087089480078AE
:104A20000A2804DA87480078401C864908708548BF
:104A3000017887A0FDF782FA8448017889A0FDF704
:104A40007DFA7D48006801F0C5FF05460E467F48A7
:104A5000007808B188A000E08AA07949097809B1F6
:104A60008AA100E084A1CDE90256CDE904106E4888
:104A7000007800906D4803786D4802786D480178A1
:104A80008448FDF75BFA601C80B20446C82835DB19
:104A900010216A48FDF7B7FE694908707E48FDF7A6
:104AA0004DFA7EA0FDF74AFA6348006801F092FFD4
:104AB00005460E46654800786149097809B9012123
:104AC00000E00021CDE90256CDE9041056480078F7
:104AD00056490978CDE900105548037855480278C1
:104AE00076A18548FBF748FC83498448FEF7A0FD82
:104AF0006948FDF723FA0024FDF736FB0320FDF794
:104B000041FB074617B13846FEF7CCFD0A20FFF7F8
:104B1000C7FD4FE70D0A00005541525431B3F5CAA5
:104B2000BCBBAF0909095B4F4B5D0000D1D3CAB1D3
:104B3000BAAFCAFDB3F5CABCBBAF0909095B4F4B9D
:104B40005D000000D6D0B6CFD3C5CFC8B3F5CABC80
:104B5000BBAF0909095B4F4B5D0000004C4544B3F6
:104B6000F5CABCBBAF0909095B4F4B5D00000000F3
:104B7000B0B4BCFCB3F5CABCBBAF0909095B4F4B71
:104B80005D000000CDE2B2BFD6D0B6CFB3F5CABC4F
:104B9000BBAF0909095B4F4B5D000000B7E4C3F9E7
:104BA000C6F7B3F5CABCBBAF0909095B4F4B5D0043
:104BB0004448543131B3F5CABCBBAF0909095B4F56
:104BC0004B5D0000424831373530B3F5CABCBBAF4E
:104BD0000909095B4F4B5D005541525432B3F5CA88
:104BE000BCBBAF0909095B4F4B5D0000D3B2BCFEF3
:104BF000B3F5CABCBBAF0909095B4F4B5D000000B0
:104C0000B3F5CABCBBAF455350383236362057498E
:104C10004649C4A3BFE92E2E2E0000008001214288
:104C200000002142100000200500002004000020A8
:104C300003000020020000200800002000080140BE
:104C40000C000020010000200000FA4400000020B9
:104C5000616C61726D5F69735F66726565203D208E
:104C600025640000616C61726D466C6167203D20B7
:104C700025640D0A00000000A1BEC6F4B6AFA1BFB6
:104C800000000000CDA3D6B900000000B9D8B1D50E
:104C9000000000005C700008B0700008B7A2B2BC51
:104CA000CAFDBEDD202D2D2D2D2D204F6E654E65AC
:104CB000745F5075626C6973680000007B224875F0
:104CC0006D223A25642E25642C2254656D70223A9B
:104CD00025642E25642C224C69676874223A252E9F
:104CE00031662C224C6564223A25642C224265658B
:104CF00070223A25647D000058000020E46E000810
:104D00002DE9F04705460C4620785B2804D026485C
:104D100004600020BDE8F0870520E860601C01F019
:104D200057F8044620785D2801D1601CF2E7FFF7B0
:104D300025FC0646A860A86808B90020EAE72046D6
:104D400001F046F880464146304600F007FB074632
:104D500001F03EF804460CB90020DBE717E0FFF74E
:104D60000DFC070000D1D5E737607E603E46601C31
:104D700001F02EF881464946304600F0EFFA8046B1
:104D800001F026F804460CB90020C3E700BF2078E4
:104D90002C28E4D020785D2801D1601CBAE70248B5
:104DA00004600020B6E70000440000200146002215
:104DB0000878302806DB0878392803DC0878303892
:104DC000024415E00878412806DB0878462803DC11
:104DD0000878373802440BE00878612806DB087849
:104DE000662803DC08785738024401E00020704749
:104DF0001201491C0878302806DB0878392803DCC2
:104E000008783038024415E00878412806DB087835
:104E1000462803DC0878373802440BE0087861281C
:104E200006DB0878662803DC08785738024401E07E
:104E30000020DCE71201491C0878302806DB0878DE
:104E4000392803DC08783038024415E00878412816
:104E500006DB0878462803DC0878373802440BE084
:104E60000878612806DB0878662803DC087857385C
:104E7000024401E00020BAE71201491C08783028FA
:104E800006DB0878392803DC08783038024415E05E
:104E90000878412806DB0878462803DC087837388C
:104EA00002440BE00878612806DB0878662803DCFA
:104EB00008785738024401E0002098E7104696E74A
:104EC0002DE9F04F8BB083468A4600200446054604
:104ED0000026674F002188468946099001200890E6
:104EE0009AF800002D2802D1624F0AF1010A9AF8BF
:104EF0000000302801D10AF1010A9AF80000312897
:104F000022DB9AF8000039281EDC00BF1AF8011BCA
:104F1000A1F1300001F0FBF90022574BCDE9060169
:104F20002046294601F046FACDE90401DDE90623D1
:104F300000F0AAFF04460D469AF80000302803DB73
:104F40009AF800003928E1DD9AF800002E2830D1C7
:104F50009AF8010030282CDB9AF80100392828DC67
:104F60000AF1010A00BF1AF8011BA1F1300001F09B
:104F7000CEF90022404BCDE906012046294601F03A
:104F800019FACDE90401DDE9062300F07DFF0446AE
:104F90000D460022364B4046494601F031FC804622
:104FA00089469AF80000302803DB9AF80000392877
:104FB000D9DD9AF80000652803D09AF8000045284A
:104FC00023D10AF1010A9AF800002B2802D10AF134
:104FD000010A08E09AF800002D2804D14FF0FF30B4
:104FE00008900AF1010A08E01AF8010B3038099913
:104FF00001EB810100EB410009909AF80000302894
:1050000003DB9AF800003928EEDDDDE9082101FB19
:1050100002F001F07CF942464B46CDE9000100F078
:1050200033FF02460B46CDE902010020124900F091
:10503000F3F922462B46CDE906013046394601F008
:10504000B9F9CDE90401DDE9062301F0B3F904461D
:105050000D46CBE906452046294601F029F9CBF853
:1050600014000320CBF80C0050460BB0BDE8F08FC5
:105070000000F03F0000F0BF000024402DE9F047A1
:1050800006460C4620787B2804D040480460002067
:10509000BDE8F0870620F060601C00F099FE044631
:1050A00020787D2801D1601CF2E7FFF767FA0546FA
:1050B000B060B06808B90020EAE7204600F088FE3A
:1050C00080464146284600F063F8074600F080FE1F
:1050D00004460CB90020DBE728692862002028611B
:1050E00020783A2803D0294804600020D0E7601CCB
:1050F00000F06EFE80464146284600F02FF9074634
:1051000000F066FE04460CB90020C1E731E0FFF76D
:1051100035FA070000D1BBE72F607D603D46601C7B
:1051200000F056FE81464946284600F031F8804698
:1051300000F04EFE04460CB90020A9E72869286259
:105140000020286120783A2803D01048046000200D
:105150009EE7601C00F03CFE81464946284600F070
:10516000FDF8804600F034FE04460CB900208FE7BD
:1051700000BF20782C28CAD020787D2801D1601C5F
:1051800086E702480460002082E700004400002017
:105190002DE9F05F8346884608F10104002798F85E
:1051A0000000222805D06A48C0F800800020BDE831
:1051B000F09F04E014F8011B5C2900D1641C2078E6
:1051C000222804D0207810B1781C0700F2D1781C76
:1051D0006049096888478146B9F1000F01D1002074
:1051E000E5E708F101044D469EE020785C2804D0F4
:1051F00014F8010B05F8010B96E0641C2078722866
:1052000018D006DC622809D066280BD06E287DD124
:105210000CE0742812D07528F9D113E0082005F8A5
:10522000010B7FE00C2005F8010B7BE00A2005F85C
:10523000010B77E00D2005F8010B73E0092005F85C
:10524000010B6FE0601CFFF7B1FD0646241DB6F5AB
:105250005C4F02D3B6F5604F00D306B962E0B6F5F5
:10526000584F1CD3B6F55C4F19D260785C2802D138
:10527000A078752800D055E0E01CFFF797FD824626
:10528000A41DBAF55C4F02D3BAF5604F00D349E0D4
:10529000C6F30901504661F39F2000F580360427CC
:1052A000802E01D2012708E0B6F5006F01D2022757
:1052B00003E0B6F5803F00D203273D44012F20D004
:1052C000022F15D0032F0AD0042F24D106F0BF00DF
:1052D00040F08001681E05460170B60900BF06F067
:1052E000BF0040F08001681E05460170B60900BF8E
:1052F00006F0BF0040F08001681E05460170B60947
:1053000000BF1548C05D3043C1B200E006E0681E32
:105310000546017000BF00BF3D4403E0207805F85A
:10532000010B00BF00BF641C2078222803D0207826
:1053300000287FF45AAF002028702078222800D15E
:10534000641CCBF810900420CBF80C0020462EE70C
:105350004400002048000020E96E000870B50546B2
:105360000C460CB9002070BD042224A12046FBF796
:105370000DFA18B90220E860201DF4E7052221A1EA
:105380002046FBF703FA18B90020E860601DEAE741
:1053900004221EA12046FBF7F9F920B90120E8609C
:1053A0006861201DDFE72078222804D121462846A5
:1053B000FFF7EEFED7E720782D2805D0207830289B
:1053C00007DB2078392804DC21462846FFF778FDE2
:1053D000C9E720785B2804D121462846FFF790FCD6
:1053E000C1E720787B2804D121462846FFF746FEF6
:1053F000B9E7084804600020B5E700006E756C6CE2
:105400000000000066616C736500000074727565D1
:1054100000000000440000202DE9F04D16460F4624
:1054200094B01C4621F0004123F00042002814BF34
:105430004FF0010C4FF0000C0CEB470CFE4B0CEB4B
:1054400003054FEA630C65452BD3350018BF0125D2
:1054500005EB44051D44F94B9D4222D3F84B52EA1B
:10546000060C02D09F4205D148B914B0002019465D
:10547000BDE8F08D002808BF4FF0000C01D04FF0C0
:10548000010C0CEB470313F5001F0AD8002E14BFC4
:105490004FF0010C4FF0000C0CEB440313F5001F10
:1054A00007D914B0324623463946BDE8F04DFFF720
:1054B00003B8DFF890834FF0000A002FB8BF4245D1
:1054C00023DAE14B9A42A8BF4FF0020A1DDADC4B07
:1054D00093421ADCDD4B03EB2253142B08DDC3F19E
:1054E000340C26FA0CF303FA0CFCB4450DD108E099
:1054F0005EB9C3F1140C22FA0CF303FA0CFC9445C8
:1055000003D103F00103C3F1020A51EA00031BD1E6
:10551000002C19DA002F18BFBAF1020F02D0BAF12D
:10552000010F07D00220FBF7A2FA14B0BDE8F04D3E
:10553000FEF7BABF0220FBF79AFAFEF7B5FF14B0E8
:1055400081F00041BDE8F08D330070D1424525D196
:1055500007F1804212F5801201BF00280020B849EF
:1055600014B008BFBDE8F08DB548884207DC002CB8
:10557000A1BF1846214614B0BDE8F08D07E0002C0D
:10558000BFBF184684F0004114B0BDE8F08DB049AB
:105590007944D1E9000114B0BDE8F08DDFF8A0C274
:1055A00062452AD1002C24DA39B1414517D10028AF
:1055B00004BF002002461CD106E040B10220FBF7E8
:1055C00056FAFEF781FF0A46394600F0D7BA9D4ADF
:1055D000394614B0002062F31E01BDE8F08D08DAF0
:1055E00014B03B46BDE8F04D02460020614600F095
:1055F00007BD14B03946BDE8F08D414517DAB4F166
:10560000804F0CD0A4F10053B3F1FF530FD13B1ED8
:105610000DDB14B01946BDE8F04D00F0E2BB3B468F
:1056200014B00246BDE8F04D194600F0C3BE0500B7
:1056300027F000433AD1E1B1414537D1002F06DDD3
:10564000002CA1BF0020414614B0BDE8F08D002F12
:1056500001DD002C1FDB002F16DA002C14DBBAF161
:10566000010F4FF0000014BF76497A4914B0BDE82D
:10567000F08DBAF1020F18BF002F0CD0BAF1010F54
:1056800009D1002F07DA0BE0002FB8BF002C0DDA8C
:10569000BAF1010F04D0002014B00146BDE8F08D2E
:1056A00014B000204FF00041BDE8F08D4FF001082C
:1056B00008EBE77CCDF814C05CEA0A0C0DD0DFF8EB
:1056C00098C162457EDDDFF894C1654B624512DD0D
:1056D0008B420ADB002C18DB23E00120FBF7C7F923
:1056E00014B0BDE8F04DFEF7E9BE554A8A4202DC2F
:1056F000002C0ADC15E0994202DA002C11DA04E0F1
:105700004F4B994219DD002C0BDD0220FBF7AFF95E
:10571000FEF7DAFE4B4A14B061F31E021146BDE8F3
:10572000F08D0220FBF7A3F9FEF7D6FE444A14B031
:1057300061F31E021146BDE8F08D0022394601F0EA
:105740005FF807460D466FF0010201F085FB4FF050
:105750005532444B00F062FF3A462B4600F02AFED9
:105760000022414B00F05AFF80468B463A462B46BA
:105770001046194600F01EFE42465B4600F01AFE37
:1057800088460E904FF0C042384B3846294600F00C
:1057900011FE83460091364A344B41460E9800F084
:1057A00009FE80460191334A334B3846294600F0C2
:1057B00001FE4246019B01F023F80D4602460B46CE
:1057C0000C9000E011E05846009900F05DFB0027C6
:1057D00088465A463846009B01F012F82B460C9A30
:1057E00000F01CFF024600F079B90020B1F5801FDF
:1057F00007DA35222846194601F02EFB05466FF0E0
:10580000340000EB2150A0F2FF300190C1F31300EF
:1058100040F07F6141F04051029118498842D8BF61
:105820004FF0000B35DD16498142C8BF4FF0010B28
:105830002FDC4FF0000B25E0FFFF1F00FFFF0F00E4
:105840000000F03F0000F07F0000404301FCFFFF3C
:105850002C1A00000000F0FF0000E0410000F043BF
:10586000FFFFEF3F5555D53F0000E03F4715F73F9D
:10587000FE822B6544DF5DF80BAE543E8E9803002C
:105880007AB60B000198401C01900298A0F5801098
:105890000290FF480299784400EBCB000991D0E9CF
:1058A000002328460B93129200F0AAFF00910A9061
:1058B00028460B9B129A099900F0E6FA02460B461D
:1058C0000020F44900F09CFBCDE90C010B46024698
:1058D00000990A9800F06EFD0690EF488846002770
:1058E00078440299006810904FF0005040EA61003F
:1058F00000EB8B4000F5002102910B9B129A10984F
:1059000000F07EFF2A46099B00F088FE3A46434697
:1059100000F050FD0891129038464146029B109AC3
:1059200000F048FD009B0A9A00F078FE089B129A4E
:1059300000F066FFDDE90C2300F03CFD0B91069AB8
:10594000129043461046194600F034FD05460246C3
:10595000D2480B460A9106217844FEF750FD0A9B77
:105960002A46089102901046194600F023FD089B34
:10597000029A00F01FFD0546099143463846194634
:10598000069A00F081FA0B9B129A00F013FD2A464A
:10599000099B00F079FACDE908013A4643461046E2
:1059A000194600F007FD0A910022BD4B009000F05F
:1059B0006BFADDE9082300F067FA0D463A46B84B6A
:1059C000384600F01DFF0A9B009A00F019FFDDE940
:1059D000082300F023FECDE908013A462B46104685
:1059E000414600F0E7FC00910A90DDE908014346DA
:1059F000069A00F0DFFC069088462B463A460B9943
:105A0000129800F0D7FC4346069A00F03DFA804613
:105A10000B4602460D9100990A9800F035FA0020D5
:105A20000F460546009B0A9A00F0EAFE42460D9B8F
:105A300000F0F4FD88460E904FF06042994B2846E6
:105A4000394600F0B7FC02910090974A954B4146C9
:105A50000E9800F0AFFC80460391944A944B284680
:105A6000394600F0A7FC4246039B00F00DFA914A2C
:105A70007A4402EBCB03D3E9002300F005FA054694
:105A80000791019800F043FC0C9003912A46079B74
:105A90000299009800F0F8F9874A7A4402EBCB03A8
:105AA000D3E900239346019300F0EEF9039B0C9A8F
:105AB00000F0EAF9002788463846039B0C9A00F06C
:105AC0009FFE5A46019B00F09BFE029B009A00F04D
:105AD00097FE2A46079B00F0A1FD02460020069093
